:060000000A128A112A2CED
:10085400AD01AE01AF0183010A128A11AD2D6430DE
:100864000A128A1175240A128A118230831603131C
:100874009F0008007808F0007908F100F2018E303A
:10088400FB007B08F3000310003003180130F40070
:100894000A128A1132250A128A117008F8007108A6
:1008A400F9007208FA00562C0800F1006430F000D8
:1008B4007008F2005F2C00005F2C0130F202031D6F
:1008C400642C652C5D2C662C7108F000023003103A
:1008D400F00DFF3E031D692C0310700DC138831207
:1008E40003139F000800F1000430F0007008F200C8
:1008F400FA30F0007008F300812C0000812C0130E4
:10090400F302031D862C872C7F2C882C0130F202E5
:10091400031D8D2C8E2C7A2C8F2C0130F102031D9B
:10092400942C952C762C962C0800831603139E0188
:10093400831203139E011430F2007208F400A42CF5
:100944000000A42C0130F402031DA92CAA2CA22C13
:10095400831203131F15AE2C1F19B12CB22CAE2C0D
:10096400B32C1E08F200F3010830FF000310F20D4F
:10097400F30DFF0BB82C831603131E087204F0004A
:100984007308F100C52C0800F21FC92CCA2CF02CE6
:100994000030F6000030F7008030F8007009F900EC
:1009A4007109FA007209FB00F90A0319FA0A03191A
:1009B400FB0A7908F6077A0803187A0FE22CE32C6D
:1009C400F7077B0803187B0FE82CE92CF807760857
:1009D400F0007708F1007808F200F02CF51FF32CF2
:1009E400F42C1A2D0030F6000030F7008030F800A7
:1009F4007309F9007409FA007509FB00F90A03196F
:100A0400FA0A0319FB0A7908F6077A0803187A0F19
:100A14000C2D0D2DF7077B0803187B0F122D132DBA
:100A2400F8077608F3007708F4007808F5001A2D23
:100A34008030F2068030F50675087202031D282DF9
:100A440074087102031D282D7308700203182B2DDE
:100A54002C2D2E2D0310312D0314312D312D080092
:100A64007308031D362D3E2D720871047004031D96
:100A74003C2D3D2D542D3E2D0030F0000030F10072
:100A84000030F200AC2DAC2D542D0130F50075086A
:100A9400F30701300310F20CF10CF00CFF3E031DC0
:100AA4004C2D542DFE307205031D592D5A2D472D02
:100AB400722D722D0130F5007508F3070130F0072F
:100AC400003003180130F107003003180130F20739
:100AD40001300310F20CF10CF00CFF3E031D6B2DE2
:100AE400FF307205031D772D782D5C2D852D852D06
:100AF4000130F30201300310F00DF10DF20DFF3E51
:100B0400031D7D2D852DF11F882D892D7A2D7318B8
:100B14008C2D8D2D932DFF30F0057F30F105FF30A6
:100B2400F2050310F30C7308F500F601F701103019
:100B34000310F50DF60DF70DFF3E031D9A2D7508F4
:100B4400F0047608F1047708F2047408031DAB2D51
:100B5400AC2DF21708008316031386100614061131
:100B64000A128A1131240A128A11B82D831203132E
:100B740086101530AC003730AB00CA30AA00AA0B7F
:100B8400C12DAB0BC12DAC0BC12DC82D831203138A
:100B940086141530AC003730AB00CA30AA00AA0B5B
:100BA400D12DAB0BD12DAC0BD12DD82D831203132A
:100BB4008610061400300A128A1157240A128A1168
:100BC4000A128A1197240A128A117108F901F90785
:100BD4007008F801F8070A128A113C240A128A11D3
:100BE400780883120313AD007908AE007A08AF00C9
:100BF4004430F8000B30F9003D30FA002D08FB00BA
:100C04002E08FC002F08FD000A128A1114270A126C
:100C14008A11780883120313AD007908AE007A08AC
:100C2400AF000030F8000030F9004030FA002D0821
:100C3400FB002E08FC002F08FD000A128A114E2624
:100C44000A128A11780883120313AD007908AE00E2
:100C54007A08AF002D08F0002E08F1002F08F200EA
:100C64000030F300A030F4004130F5000A128A117C
:100C7400C6240A128A110318402E412E452E8312CF
:100C840003130615B82D831203130611B82DB82DBE
:100C9400B82D0A128A1100287B0883120313A000BE
:100CA4007C08A1007D08A2000310210D220DA300E1
:100CB4002308A800A808031D602E612E692E0030A9
:100CC400F8000030F9000030FA00132F132F7808D1
:100CD400A0007908A1007A08A2000310210D220DBA
:100CE400A3002308A900A908031D792E7A2E822EB9
:100CF4000030F8000030F9000030FA00132F132FF1
:100D04000030A5000030A6000030A7008930290774
:100D1400A0002008A8027B08A0007C08A1007D0890
:100D2400A20010300310A20CA10CA00CFF3E031D66
:100D3400942E2008A3002308A9007808A0007908AD
:100D4400A1007A08A20010300310A20CA10CA00C80
:100D5400FF3E031DA62E2008A3002308A906803009
:100D6400A0002008A905FC17FF30FB05FF30FC0597
:100D74000030FD05F917FF30F805FF30F9050030A4
:100D8400FA051830A0002008A400C82E0130031072
:100D9400A50DA60DA70DFF3E031DC92E7A087D02E1
:100DA400031DDA2E79087C02031DDA2E78087B02F3
:100DB400031CDD2EDE2EEA2E7808FB027908031CC4
:100DC400790FFC027A08031C7A0AFD022514EA2E24
:100DD40001300310FB0DFC0DFD0DFF3E031DEB2E3A
:100DE4000130A402031DF72EF82EC82EF92E250873
:100DF400F0002608F1002708F2002808A0002008C7
:100E0400F3002908A1002108F4000A128A113225EE
:100E14000A128A117008F8007108F9007208FA00C1
:100E2400132F0800780883120313A0007908A10087
:100E34007A08A2000310210D220DA3002308A400A8
:100E4400A408031D262F272F2F2F0030F800003071
:100E5400F9000030FA00FF2FFF2F7B08A0007C0868
:100E6400A1007D08A2000310210D220DA300230878
:100E7400A900A908031D3F2F402F482F0030F80078
:100E84000030F9000030FA00FF2FFF2F29087B3EC5
:100E9400A0002008A4077808A0007908A1007A0817
:100EA400A20010300310A20CA10CA00CFF3E031DE5
:100EB400542F2008A3002308A9007B08A0007C0865
:100EC400A1007D08A20010300310A20CA10CA00CFC
:100ED400FF3E031D662F2008A3002308A9068030C7
:100EE400A0002008A905F917FC17FF30FB05FF3007
:100EF400FC050030FD050030A5000030A6000030E0
:100F0400A7000730A0002008A800882F781C8B2F8A
:100F14008C2F9D2F7B08A5077C08031103187C0ADE
:100F24000319952FA6077D08031103187D0A0319D9
:100F34009C2FA7079D2F01300310FA0CF90CF80C15
:100F4400FF3E031D9E2F01300310FB0DFC0DFD0D14
:100F5400FF3E031DA62F0130A802031DB22FB32F9D
:100F6400882FB42F0930A0002008A800B92F781CBE
:100F7400BC2FBD2FCE2F7B08A5077C0803110318B7
:100F84007C0A0319C62FA6077D08031103187D0ADE
:100F94000319CD2FA707CE2F01300310FA0CF90C3B
:100FA400F80CFF3E031DCF2F01300310A70CA60C35
:100FB400A50CFF3E031DD72F0130A802031DE32F0C
:100FC400E42FB92FE52F2508F0002608F1002708A3
:100FD400F2002408A0002008F3002908A100210839
:100FE400F4000A128A1132250A128A117008F800D4
:0C0FF4007108F9007208FA00FF2F0800D5
:02400E00321965
:00000001FF
